:020000040800F2
:100000000050002079110008151100081D1100088A
:10001000251100082D11000835110008000000000E
:100020000000000000000000000000003D1100087A
:100030004911000800000000551100086111000876
:10004000C1110008C1110008C1110008C111000848
:10005000C1110008C1110008C1110008C111000838
:10006000C1110008C1110008C1110008C111000828
:10007000C1110008C1110008C1110008C111000818
:10008000C1110008C1110008C1110008C111000808
:10009000C1110008C1110008C1110008C1110008F8
:1000A000C1110008C1110008C1110008C1110008E8
:1000B000C1110008C1110008C1110008C1110008D8
:1000C000C1110008C1110008C1110008C1110008C8
:1000D000C1110008C1110008C1110008C1110008B8
:1000E000C1110008C1110008C11100080000000082
:1000F0000000000000000000000000000000000000
:0C01000000000000000000005FF808F1A3
:10010C0010B5054C237833B9044B13B10448AFF345
:10011C0000800123237010BD0C00002000000000A3
:10012C008425000808B5034B1BB103490348AFF302
:10013C00008008BD0000000010000020842500088D
:10014C0010F8012B11F8013B012A28BF9A42F7D075
:10015C00D01A704780B586B000AF0346FB7107F12B
:10016C00080300221A605A609A60DA600122FF21AB
:10017C000E4801F072FDFF23BB6001233B61FB794C
:10018C00492B02D10023FB6006E0FB794F2B03D1F6
:10019C000123FB6002237B6107F108031946034826
:1001AC0001F0C0FB00BF1837BD4680BD0008014000
:1001BC0080B582B000AF0023FB7101212D4801F006
:1001CC0035FD0346012B03D1FB7943F00103FB7191
:1001DC000221284801F02AFD0346012B03D1FB79AB
:1001EC0043F00203FB710421224801F01FFD03467A
:1001FC00012B03D1FB7943F00403FB7108211D484B
:10020C0001F014FD0346012B03D1FB7943F00803E5
:10021C00FB711021174801F009FD0346012B03D196
:10022C00FB7943F01003FB712021124801F0FEFC16
:10023C000346012B03D1FB7943F02003FB714021D2
:10024C000C4801F0F3FC0346012B03D1FB7943F07E
:10025C004003FB718021074801F0E8FC0346012BA9
:10026C0003D1FB7963F07F03FB71FB7918460837E8
:10027C00BD4680BD0008014080B584B000AF034688
:10028C00FB710023FB810023BB81FB7903F001038D
:10029C00002B04D0FB8943F00103FB8103E0BB89F5
:1002AC0043F00103BB81FB7903F00203002B04D064
:1002BC00FB8943F00203FB8103E0BB8943F002039B
:1002CC00BB81FB7903F00403002B04D0FB8943F0C2
:1002DC000403FB8103E0BB8943F00403BB81FB797E
:1002EC0003F00803002B04D0FB8943F00803FB81C7
:1002FC0003E0BB8943F00803BB81FB7903F01003D7
:10030C00002B04D0FB8943F01003FB8103E0BB8975
:10031C0043F01003BB81FB7903F02003002B04D0C6
:10032C00FB8943F02003FB8103E0BB8943F02003EE
:10033C00BB81FB7903F04003002B04D0FB8943F015
:10034C004003FB8103E0BB8943F04003BB8197F979
:10035C000730002B04DAFB8943F08003FB8103E0B8
:10036C00BB8943F08003BB81FB89012219460648F7
:10037C0001F073FCBB8900221946034801F06DFCA7
:10038C0000BF1037BD4680BD0008014080B582B06B
:10039C0000AF4920FFF7DEFE00224FF40051114858
:1003AC0001F05BFC01224FF480410E4801F055FC3A
:1003BC0001224FF400410B4801F04FFC00BFFFF746
:1003CC00F7FE0346FB7100224FF40041054801F093
:1003DC0044FC97F90730002BEADB00BF00BF08375D
:1003EC00BD4680BD000C014080B582B000AF034615
:1003FC00FB714F20FFF7AEFEFB791846FFF73CFF71
:10040C0000224FF40051174801F027FC00224FF452
:10041C008041144801F021FC00224FF400411148A6
:10042C0001F01BFC00224FF400510E4801F015FCAA
:10043C0000224FF480410B4801F00FFC01224FF4D5
:10044C000041084801F009FC00BF00224FF40041B4
:10045C00044801F002FCFFF799FF00BF0837BD46C6
:10046C0080BD00BF000C014080B582B000AF0346D8
:10047C00FB714F20FFF76EFEFB791846FFF7FCFE71
:10048C0001224FF400510E4801F0E7FB00224FF41B
:10049C0080410B4801F0E1FB01224FF40041084878
:1004AC0001F0DBFB00BF00224FF40041044801F0D7
:1004BC00D4FBFFF76BFF00BF0837BD4680BD00BF04
:1004CC00000C014080B500AF3820FFF78DFF0220F3
:1004DC0001F020F90120FFF787FF022001F01AF943
:1004EC000620FFF781FF022001F014F90C20FFF722
:1004FC007BFF022001F00EF900BF80BD80B584B0F7
:10050C0000AF03463A60FB710B46BB710023FB73D3
:10051C00FB79002B07D1BB7963F07F03DBB2184664
:10052C00FFF762FF09E0FB79012B06D1BB7963F081
:10053C003F03DBB21846FFF757FF0023FB730CE0B9
:10054C00FB7B3A6813441B781846FFF78DFF02209B
:10055C0001F0E0F8FB7B0133FB73FB7B0F2B05D821
:10056C00FB7B3A6813441B78002BE9D100BF103792
:10057C00BD4680BD90B59FB000AF0023BB6507F1B1
:10058C005C0300221A609A800023FB6407F150037D
:10059C0000221A609A8000233B6407F14403002276
:1005AC001A609A800023FB6207F1300300221A6064
:1005BC005A609A60DA6001F04BF800F0ABFC00F086
:1005CC00E5FCFFF77FFF07F12C031A460021002002
:1005DC00FFF794FF00233B6200237B620023BB6286
:1005EC0000237B610023BB610023FB6100237B673D
:1005FC0000233B670023FB66C44A07F10C0392E817
:10060C00030083E8030000237B600023BB6000230E
:10061C00BB6600F0D1FD78667B6E0F2B00F2F98380
:10062C0001A252F823F000BF75060008AB060008C3
:10063C00E1060008170700084D07000883070008AB
:10064C00B9070008EF070008250800085D08000836
:10065C0095080008D30800083D0900089B0900080C
:10066C00F9090008570A000800233B67BB6E9B0082
:10067C0078333B4453F8582C13469B0013445B00CF
:10068C001A46BB6E9B0078333B4443F8582CBB6E28
:10069C009B0078333B44012243F8642CB9E30023DC
:1006AC003B67BB6E9B0078333B4453F8582C134686
:1006BC009B0013445B005A1CBB6E9B0078333B447D
:1006CC0043F8582CBB6E9B0078333B44012243F813
:1006DC00642C9EE300233B67BB6E9B0078333B444A
:1006EC0053F8582C13469B0013445B009A1CBB6EAA
:1006FC009B0078333B4443F8582CBB6E9B007833FB
:10070C003B44012243F8642C83E300233B67BB6E1C
:10071C009B0078333B4453F8582C13469B001344EE
:10072C005B00DA1CBB6E9B0078333B4443F8582CBF
:10073C00BB6E9B0078333B44012243F8642C68E386
:10074C0000233B67BB6E9B0078333B4453F8582C1B
:10075C0013469B0013445B001A1DBB6E9B00783341
:10076C003B4443F8582CBB6E9B0078333B4401222E
:10077C0043F8642C4DE300233B67BB6E9B0078333E
:10078C003B4453F8582C13469B0013445B005A1DF2
:10079C00BB6E9B0078333B4443F8582CBB6E9B00DC
:1007AC0078333B44012243F8642C32E300233B674B
:1007BC00BB6E9B0078333B4453F8582C13469B007C
:1007CC0013445B009A1DBB6E9B0078333B4443F88B
:1007DC00582CBB6E9B0078333B44012243F8642CAD
:1007EC0017E300233B67BB6E9B0078333B4453F805
:1007FC00582C13469B0013445B00DA1DBB6E9B0008
:10080C0078333B4443F8582CBB6E9B0078333B4405
:10081C00012243F8642CFCE200233B67BB6E9B0077
:10082C0078333B4453F8582C13469B0013445B001D
:10083C0003F10802BB6E9B0078333B4443F8582C01
:10084C00BB6E9B0078333B44012243F8642CE0E2FE
:10085C0000233B67BB6E9B0078333B4453F8582C0A
:10086C0013469B0013445B0003F10902BB6E9B0013
:10087C0078333B4443F8582CBB6E9B0078333B4495
:10088C00012243F8642CC4E200233B6200237B6208
:10089C000023BB6200237B610023BB610023FB614F
:1008AC0000237B6700233B670023FB66184BFB6030
:1008BC00174B3B6100237B6000237B600023BB66EE
:1008CC00FFF700FEA5E200233B677B69002B00F0DD
:1008DC008F827B69012B09D1BB69002B06D10123C7
:1008EC00BB660C4BFB6001237B6020E07B69012B1A
:1008FC0012D1BB69012B0FD1FB69002B0CD1022348
:10090C00BB66044B3B610123BB6010E0C0250008B3
:10091C009C250008A02500087B69012B40F06A8209
:10092C00BB69012B40F06682FB69012B62E261E23C
:10093C0000233B677B69002B00F05E827B69012BF7
:10094C0009D1BB69002B06D10123BB66974BFB6019
:10095C0001237B601AE07B69012B0CD1BB69012B55
:10096C0009D1FB69002B06D10223BB668F4B3B617F
:10097C000123BB600AE07B69012B40F03F82BB691D
:10098C00012B40F03B82FB69012B37E236E200235E
:10099C003B677B69002B00F033827B69012B09D10B
:1009AC00BB69002B06D10123BB66814BFB60012385
:1009BC007B601AE07B69012B0CD1BB69012B09D13F
:1009CC00FB69002B06D10223BB66794B3B610123EB
:1009DC00BB600AE07B69012B40F01482BB69012BE0
:1009EC0040F01082FB69012B0CE20BE200233B6709
:1009FC007B69002B00F008827B69012B09D1BB6954
:100A0C00002B06D10123BB666A4BFB6001237B6084
:100A1C001AE07B69012B0CD1BB69012B09D1FB6955
:100A2C00002B06D10223BB66624B3B610123BB60EA
:100A3C000AE07B69012B40F0E981BB69012B40F096
:100A4C00E581FB69012BE1E1E0E1FFF73BFD0123CF
:100A5C003B677B69002B00F0B1817B69012B05D1D1
:100A6C00BB69002B02D13B6A7B67A7E17B69012B39
:100A7C0042D1BB69012B3FD1FB69002B3CD1FB68F8
:100A8C004D491846FFF75CFB0346002B05D13B6A2A
:100A9C007A6A02FB03F37B678FE1FB6843491846D4
:100AAC00FFF74EFB0346002B0BD17B6A002B02D1C8
:100ABC000123FB66ADE13A6A7B6A92FBF3F37B6739
:100ACC007BE1FB683A491846FFF73AFB0346002BDB
:100ADC0004D13A6A7B6A13447B676EE1FB68354943
:100AEC001846FFF72DFB0346002B40F066813A6A4F
:100AFC007B6AD31A7B6760E17B69012B40F05E81D6
:100B0C00BB69012B40F05A81FB69012B40F05681E7
:100B1C00FB6829491846FFF713FB0346002B07D047
:100B2C00FB6822491846FFF70BFB0346002B4BD101
:100B3C003B6921491846FFF703FB0346002B07D0FE
:100B4C003B691A491846FFF7FBFA0346002B3BD1C9
:100B5C00FB6819491846FFF7F3FA0346002B05D139
:100B6C003B6A7A6A02FB03F37B670AE07B6A002B21
:100B7C0002D10123FB664CE13A6A7B6A92FBF3F3E8
:100B8C007B673B690C491846FFF7DAFA0346002BE2
:100B9C0005D1BA6A7B6F02FB03F37B670EE1BB6A7C
:100BAC00002B0BD10123FB6633E100BFA425000809
:100BBC00A8250008AC250008A0250008BB6A7A6FA0
:100BCC0092FBF3F37B67F9E0FB68A2491846FFF749
:100BDC00B7FA0346002B07D0FB689F491846FFF76E
:100BEC00AFFA0346002B32D13B699A491846FFF7FE
:100BFC00A7FA0346002B07D03B6997491846FFF725
:100C0C009FFA0346002B22D1FB6892491846FFF746
:100C1C0097FA0346002B04D13A6A7B6A13447B672C
:100C2C0003E03A6A7B6AD31A7B673B6989491846A9
:100C3C00FFF786FA0346002B04D1BB6A7A6F134484
:100C4C007B67BBE0BB6A7A6FD31A7B67B6E0FB6845
:100C5C0082491846FFF774FA0346002B07D0FB684D
:100C6C007F491846FFF76CFA0346002B4AD13B69C3
:100C7C0078491846FFF764FA0346002B07D03B6906
:100C8C0075491846FFF75CFA0346002B3AD1FB680E
:100C9C0072491846FFF754FA0346002B07D0FB683D
:100CAC006F491846FFF74CFA0346002B18D1FB6826
:100CBC006A491846FFF744FA0346002B05D13B6AF4
:100CCC007A6A02FB03F37B670AE07B6A002B02D192
:100CDC000123FB669DE03A6A7B6A92FBF3F37B6728
:100CEC003B695C491846FFF72BFA0346002B04D1ED
:100CFC00BB6A7A6F13447B6760E0BB6A7A6FD31A66
:100D0C007B675BE0FB6853491846FFF719FA03460B
:100D1C00002B07D0FB6850491846FFF711FA034621
:100D2C00002B4BD13B694D491846FFF709FA034696
:100D3C00002B07D03B694A491846FFF701FA0346D6
:100D4C00002B3BD13B6945491846FFF7F9F903469F
:100D5C00002B07D03B6942491846FFF7F1F90346CF
:100D6C00002B18D13B693D491846FFF7E9F90346BA
:100D7C00002B05D17B6ABA6A02FB03F37B670AE09E
:100D8C00BB6A002B02D10123FB6642E07A6ABB6A84
:100D9C0092FBF3F37B67FB682E491846FFF7D0F9FB
:100DAC000346002B04D13B6A7A6F13447B6705E042
:100DBC003A6A7B6FD31A7B6700E000BFFB6E002B97
:100DCC0026D17B6F3B6200237B620023BB62012335
:100DDC007B610023BB610023FB61224BFB60214B39
:100DEC003B6100237B6000237B600023BB660FE02C
:100DFC0000BF0EE000BF0CE000BF0AE000BF08E03F
:100E0C0000BF06E000BF04E000BF02E000BF00E04E
:100E1C0000BF07F12C0314220021184601F070FBCF
:100E2C003B6F002B22D0FB6E002B0BD007F12C0359
:100E3C000D4A1C4613460FCB07C4238002341B0CEF
:100E4C0023705DE007F12C030A221946786F01F03C
:100E5C0013FB55E0A8250008AC250008A0250008C8
:100E6C00A42500089C250008B02500083B6A07F162
:100E7C0058010A22184601F0FFFA7B6A07F14C016F
:100E8C000A22184601F0F8FABB6A07F140010A225F
:100E9C00184601F0F1FA7B69002B07D007F15802D4
:100EAC0007F12C031146184601F032FB7B68002B2E
:100EBC0006D0FA6807F12C031146184601F028FBFE
:100ECC00BB69002B07D007F14C0207F12C0311462C
:100EDC00184601F01DFBBB68002B06D03A6907F1E0
:100EEC002C031146184601F013FBFB69002B07D0AD
:100EFC0007F1400207F12C031146184601F008FBDC
:100F0C0007F12C031A4600210020FFF7F7FAFFF730
:100F1C0080BB00BF80B590B000AF07F1180328224A
:100F2C000021184601F0ECFA3B1D00221A605A60B1
:100F3C009A60DA601A610223BB610123BB62102341
:100F4C00FB6200237B6307F11803184600F09EFE3A
:100F5C000346002B01D000F09FF80F237B60002389
:100F6C00BB600023FB6000233B6100237B613B1DC6
:100F7C000021184601F00CF90346002B01D000F0BB
:100F8C008BF800BF4037BD4680BD000080B588B0EF
:100F9C0000AF07F1100300221A605A609A60DA6001
:100FAC00394B9B69384A43F010039361364B9B696C
:100FBC0003F01003FB60FB68334B9B69324A43F030
:100FCC0020039361304B9B6903F02003BB60BB682B
:100FDC002D4B9B692C4A43F0040393612A4B9B696C
:100FEC0003F004037B607B68274B9B69264A43F024
:100FFC0008039361244B9B6903F008033B603B6837
:10100C000022FF21214800F028FE00224EF20F01A1
:10101C001F4800F022FEFF233B6101237B6100236C
:10102C00BB610223FB6107F110031946174800F05E
:10103C0079FC4EF20F033B6101237B610023BB6102
:10104C000223FB6107F110031946114800F06AFCFA
:10105C0010233B610F4B7B610123BB6107F1100334
:10106C0019460B4800F05EFCE0233B6100237B61DA
:10107C000123BB6107F110031946054800F052FC2F
:10108C0000BF2037BD4680BD001002400008014063
:10109C00000C01400000111080B400AF72B600BF0C
:1010AC0000BFFDE780B485B000AF154B9B69144AB7
:1010BC0043F001039361124B9B6903F00103BB6086
:1010CC00BB680F4BDB690E4A43F08053D3610C4B6A
:1010DC00DB6903F080537B607B680A4B5B68FB60C9
:1010EC00FB6823F0E063FB60FB6843F08063FB600C
:1010FC00044AFB68536000BF1437BD4680BC704780
:10110C00001002400000014080B400AF00BFFDE7BA
:10111C0080B400AF00BFFDE780B400AF00BFFDE7B7
:10112C0080B400AF00BFFDE780B400AF00BFFDE7A7
:10113C0080B400AF00BFBD4680BC704780B400AF28
:10114C0000BFBD4680BC704780B400AF00BFBD4639
:10115C0080BC704780B500AF00F0C0FA00BF80BD06
:10116C0080B400AF00BFBD4680BC7047FFF7F8FFEE
:10117C000B480C490C4A002302E0D458C4500433E9
:10118C00C4188C42F9D3094A094C002301E01360BE
:10119C000432A242FBD301F0CBF9FFF7EBF9704715
:1011AC00000000200C000020202600080C0000206D
:1011BC002C000020FEE7000080B582B000AF0022BA
:1011CC000121A84800F049FD01220221A54800F0A8
:1011DC0044FD01220421A34800F03FFD0122082117
:1011EC00A04800F03AFD10219E4800F01FFD034678
:1011FC00002B17D10A2000F08DFA1021994800F02D
:10120C0015FD0346002B6AD101237B6000233B6054
:10121C0000BF1021934800F009FD0346002BF8D0C5
:10122C007B680FE220218F4800F000FD0346002B65
:10123C0017D10A2000F06EFA20218A4800F0F6FC43
:10124C000346002B4BD102237B6000233B6000BF85
:10125C002021844800F0EAFC0346002BF8D07B6880
:10126C00F0E140217F4800F0E1FC0346002B17D150
:10127C000A2000F04FFA40217A4800F0D7FC0346D0
:10128C00002B2CD103237B6000233B6000BF40214B
:10129C00744800F0CBFC0346002BF8D07B68D1E1FE
:1012AC008021704800F0C2FC0346002B17D10A20A5
:1012BC0000F030FA80216B4800F0B8FC0346002B9C
:1012CC000DD10A237B6000233B6000BF8021654861
:1012DC0000F0ACFC0346002BF8D07B68B2E1012295
:1012EC000121604800F0B9FC002202215D4800F0A9
:1012FC00B4FC012204215B4800F0AFFC0122082160
:10130C00584800F0AAFC1021564800F08FFC034608
:10131C00002B17D10A2000F0FDF91021514800F0E4
:10132C0085FC0346002B6AD104237B6000233B60C1
:10133C0000BF10214B4800F079FC0346002BF8D07D
:10134C007B687FE12021474800F070FC0346002BAE
:10135C0017D10A2000F0DEF92021424800F066FC8B
:10136C000346002B4BD105237B6000233B6000BF61
:10137C0020213C4800F05AFC0346002BF8D07B6837
:10138C0060E14021374800F051FC0346002B17D197
:10139C000A2000F0BFF94021324800F047FC034618
:1013AC00002B2CD106237B6000233B6000BF402127
:1013BC002C4800F03BFC0346002BF8D07B6841E145
:1013CC008021284800F032FC0346002B17D10A205C
:1013DC0000F0A0F98021234800F028FC0346002BE4
:1013EC000DD10B237B6000233B6000BF80211D4887
:1013FC0000F01CFC0346002BF8D07B6822E1012294
:10140C000121184800F029FC01220221154800F0A6
:10141C0024FC00220421134800F01FFC01220821A7
:10142C00104800F01AFC10210E4800F0FFFB034698
:10143C00002B19D10A2000F06DF91021094800F099
:10144C00F5FB0346002B6CD107237B6000233B602C
:10145C0000BF1021034800F0E9FB0346002BF8D035
:10146C007B68EFE0000C01402021784800F0DEFBA7
:10147C000346002B17D10A2000F04CF920217348A9
:10148C0000F0D4FB0346002B4BD108237B600023D8
:10149C003B6000BF20216D4800F0C8FB0346002BC9
:1014AC00F8D07B68CEE04021684800F0BFFB0346D3
:1014BC00002B17D10A2000F02DF94021634800F0D1
:1014CC00B5FB0346002B2CD109237B6000233B602A
:1014DC0000BF40215D4800F0A9FB0346002BF8D06B
:1014EC007B68AFE08021594800F0A0FB0346002B3D
:1014FC0017D10A2000F00EF98021544800F096FB19
:10150C000346002B0DD10C237B6000233B6000BFF6
:10151C0080214E4800F08AFB0346002BF8D07B68F4
:10152C0090E001220121494800F097FB01220221A1
:10153C00464800F092FB01220421444800F08DFB48
:10154C0000220821414800F088FB10213F4800F0A0
:10155C006DFB0346002B17D10A2000F0DBF810219D
:10156C003A4800F063FB0346002B6AD10D237B60E5
:10157C0000233B6000BF1021344800F057FB0346AA
:10158C00002BF8D07B685DE02021304800F04EFB4A
:10159C000346002B17D10A2000F0BCF820212B4861
:1015AC0000F044FB0346002B4BD100237B6000234F
:1015BC003B6000BF2021254800F038FB0346002B80
:1015CC00F8D07B683EE04021204800F02FFB03461A
:1015DC00002B17D10A2000F09DF840211B4800F089
:1015EC0025FB0346002B2CD10E237B6000233B6094
:1015FC0000BF4021154800F019FB0346002BF8D022
:10160C007B681FE08021114800F010FB0346002B83
:10161C0017D10A2000F07EF880210C4800F006FB60
:10162C000346002B0DD10F237B6000233B6000BFD2
:10163C008021064800F0FAFA0346002BF8D07B68AC
:10164C0000E0632318460837BD4680BD000C0140FE
:10165C0080B500AF084B1B68074A43F010031360BA
:10166C00032000F02BF90F2000F008F8FFF71AFD0B
:10167C000023184680BD00BF0020024080B582B018
:10168C0000AF7860124B1A68124B1B7819464FF456
:10169C007A73B3FBF1F3B2FBF3F3184600F035F9B0
:1016AC000346002B01D001230EE07B680F2B0AD8D8
:1016BC00002279684FF0FF3000F00BF9064A7B6886
:1016CC001360002300E0012318460837BD4680BD97
:1016DC0000000020080000200400002080B400AFAF
:1016EC00054B1B781A46054B1B681344034A1360C1
:1016FC0000BFBD4680BC70470800002028000020B9
:10170C0080B400AF024B1B681846BD4680BC7047C6
:10171C002800002080B584B000AF7860FFF7F0FFA0
:10172C00B8607B68FB60FB68B3F1FF3F05D00A4BE8
:10173C001B781A46FB681344FB6000BFFFF7E0FF01
:10174C000246BB68D31AFA689A42F7D800BF00BFAA
:10175C001037BD4680BD00BF0800002080B485B0A6
:10176C0000AF78607B6803F00703FB600C4BDB6811
:10177C00BB60BA684FF6FF031340BB60FB681A02EC
:10178C00BB68134343F0BF6343F40033BB60044AAC
:10179C00BB68D36000BF1437BD4680BC704700BF28
:1017AC0000ED00E080B400AF044BDB681B0A03F0D3
:1017BC0007031846BD4680BC704700BF00ED00E033
:1017CC0080B483B000AF03463960FB7197F90730E2
:1017DC00002B0ADB3B68DAB20C4997F9073012018F
:1017EC00D2B20B4483F800230AE03B68DAB2084912
:1017FC00FB7903F00F03043B1201D2B20B441A76AF
:10180C0000BF0C37BD4680BC704700BF00E100E054
:10181C0000ED00E080B489B000AFF860B9607A6088
:10182C00FB6803F00703FB61FB69C3F10703042B9F
:10183C0028BF0423BB61FB690433062B02D9FB6967
:10184C00033B00E000237B614FF0FF32BB6902FADF
:10185C0003F3DA43BB681A407B699A404FF0FF31BF
:10186C007B6901FA03F3D9437B680B401343184699
:10187C002437BD4680BC704780B582B000AF78601D
:10188C007B68013BB3F1807F01D301230FE00A4A4F
:10189C007B68013B53600F214FF0FF30FFF790FF47
:1018AC00054B00229A60044B07221A60002318464D
:1018BC000837BD4680BD00BF10E000E080B582B0A7
:1018CC0000AF78607868FFF749FF00BF0837BD4666
:1018DC0080BD80B586B000AF0346B9607A60FB73FB
:1018EC0000237B61FFF75EFF78617A68B9687869DD
:1018FC00FFF790FF024697F90F3011461846FFF795
:10190C005FFF00BF1837BD4680BD80B582B000AF09
:10191C0078607868FFF7B0FF034618460837BD4675
:10192C0080BD000080B48BB000AF786039600023BC
:10193C007B6200233B6269E101227B6A02FA03F3BA
:10194C00FB613B681B68FA691340BB61BA69FB69B0
:10195C009A4240F058813B685B689A4A93425ED049
:10196C00984A934275D8984A934258D0964A9342D3
:10197C006FD8964A934252D0944A934269D8944A6B
:10198C0093424CD0924A934263D8924A934246D0A7
:10199C00904A93425DD8122B2AD8122B59D801A207
:1019AC0052F823F02B1A0008051A0008171A000821
:1019BC00591A00085F1A00085F1A00085F1A00081D
:1019CC005F1A00085F1A00085F1A00085F1A000807
:1019DC005F1A00085F1A00085F1A00085F1A0008F7
:1019EC005F1A00085F1A00080D1A0008211A000877
:1019FC00794A934213D02CE03B68DB683B6229E0C8
:101A0C003B68DB6804333B6224E03B68DB680833EB
:101A1C003B621FE03B68DB680C333B621AE03B68BF
:101A2C009B68002B02D104233B6213E03B689B684C
:101A3C00012B05D108233B627B68FA691A6109E026
:101A4C0008233B627B68FA695A6103E000233B621E
:101A5C0000E000BFBB69FF2B01D87B6801E07B680D
:101A6C0004337B61BB69FF2B02D87B6A9B0002E0CD
:101A7C007B6A083B9B003B617B691A680F213B69C1
:101A8C0001FA03F3DB431A40396A3B6901FA03F3A9
:101A9C001A437B691A603B685B6803F08053002B28
:101AAC0000F0B1804D4B9B694C4A43F001039361AC
:101ABC004A4B9B6903F00103BB60BB68484A7B6AD5
:101ACC009B08023352F82330FB607B6A03F003035C
:101ADC009B000F2202FA03F3DB43FA681340FB600E
:101AEC007B68404A934213D07B683F4A93420DD0A7
:101AFC007B683E4A934207D07B683D4A934201D1B2
:101B0C00032306E0042304E0022302E0012300E0A7
:101B1C0000237A6A02F0030292009340FA6813439E
:101B2C00FB602F497B6A9B080233FA6841F823203B
:101B3C003B685B6803F48013002B06D02D4B9A682E
:101B4C002C49BB6913438B6006E02A4B9A68BB692E
:101B5C00DB43284913408B603B685B6803F400133C
:101B6C00002B06D0234BDA682249BB691343CB60A8
:101B7C0006E0204BDA68BB69DB431E491340CB609F
:101B8C003B685B6803F40033002B06D0194B5A6892
:101B9C001849BB6913434B6006E0164B5A68BB6986
:101BAC00DB43144913404B603B685B6803F48033A0
:101BBC00002B21D00F4B1A680E49BB6913430B60E5
:101BCC0021E000BF00003210000031100000221094
:101BDC000000211000001210000011100010024033
:101BEC000000014000080140000C014000100140C1
:101BFC0000140140000401400B4B1A68BB69DB4325
:101C0C00094913400B607B6A01337B623B681A689D
:101C1C007B6A22FA03F3002B7FF48EAE00BF00BF69
:101C2C002C37BD4680BC70470004014080B485B0A1
:101C3C0000AF78600B467B807B689A687B8813408A
:101C4C00002B02D00123FB7301E00023FB73FB7B11
:101C5C0018461437BD4680BC704780B483B000AFC3
:101C6C0078600B467B8013467B707B78002B03D00F
:101C7C007A887B681A6103E07B881A047B681A6196
:101C8C0000BF0C37BD4680BC7047000080B586B0E5
:101C9C0000AF78607B68002B01D1012372E27B6876
:101CAC001B6803F00103002B00F08780924B5B68EC
:101CBC0003F00C03042B0CD08F4B5B6803F00C036C
:101CCC00082B12D18C4B5B6803F48033B3F5803F47
:101CDC000BD1894B1B6803F40033002B6CD07B6851
:101CEC005B68002B68D101234CE27B685B68B3F521
:101CFC00803F06D1804B1B687F4A43F480331360CE
:101D0C002EE07B685B68002B0CD17B4B1B687A4AFE
:101D1C0023F480331360784B1B68774A23F48023B9
:101D2C0013601DE07B685B68B3F5A02F0CD1724B80
:101D3C001B68714A43F4802313606F4B1B686E4A17
:101D4C0043F4803313600BE06B4B1B686A4A23F43B
:101D5C0080331360684B1B68674A23F4802313603D
:101D6C007B685B68002B13D0FFF7CAFC386108E076
:101D7C00FFF7C6FC02463B69D31A642B01D9032337
:101D8C0000E25D4B1B6803F40033002BF0D014E031
:101D9C00FFF7B6FC386108E0FFF7B2FC02463B697E
:101DAC00D31A642B01D90323ECE1534B1B6803F4C6
:101DBC000033002BF0D100E000BF7B681B6803F000
:101DCC000203002B63D04C4B5B6803F00C03002B1D
:101DDC000BD0494B5B6803F00C03082B1CD1464B12
:101DEC005B6803F48033002B16D1434B1B6803F064
:101DFC000203002B05D07B681B69012B01D001234A
:101E0C00C0E13D4B1B6823F0F8027B685B69DB008B
:101E1C00394913430B603AE07B681B69002B20D0D7
:101E2C00364B01221A60FFF76BFC386108E0FFF7B4
:101E3C0067FC02463B69D31A022B01D90323A1E1AB
:101E4C002D4B1B6803F00203002BF0D02A4B1B68B0
:101E5C0023F0F8027B685B69DB00274913430B60B6
:101E6C0015E0264B00221A60FFF74AFC386108E0A7
:101E7C00FFF746FC02463B69D31A022B01D9032318
:101E8C0080E11D4B1B6803F00203002BF0D17B6833
:101E9C001B6803F00803002B3AD07B689B69002B6E
:101EAC0019D0174B01221A60FFF72AFC386108E0A1
:101EBC00FFF726FC02463B69D31A022B01D90323F8
:101ECC0060E10D4B5B6A03F00203002BF0D00120A4
:101EDC0000F09CFA1CE00A4B00221A60FFF710FC81
:101EEC0038610FE0FFF70CFC02463B69D31A022B5A
:101EFC0008D9032346E100BF001002400000424213
:101F0C0080044242924B5B6A03F00203002BE9D13E
:101F1C007B681B6803F00403002B00F0A6800023F1
:101F2C00FB758B4BDB6903F08053002B0DD1884B79
:101F3C00DB69874A43F08053D361854BDB6903F03F
:101F4C008053BB60BB680123FB75824B1B6803F499
:101F5C008073002B18D17F4B1B687E4A43F480732F
:101F6C001360FFF7CDFB386108E0FFF7C9FB0246B1
:101F7C003B69D31A642B01D9032303E1754B1B680E
:101F8C0003F48073002BF0D07B68DB68012B06D147
:101F9C006F4B1B6A6E4A43F0010313622DE07B68A2
:101FAC00DB68002B0CD16A4B1B6A694A23F00103D6
:101FBC001362674B1B6A664A23F0040313621CE02E
:101FCC007B68DB68052B0CD1614B1B6A604A43F0C4
:101FDC00040313625E4B1B6A5D4A43F001031362F8
:101FEC000BE05B4B1B6A5A4A23F001031362584BFC
:101FFC001B6A574A23F0040313627B68DB68002BCF
:10200C0015D0FFF77DFB38610AE0FFF779FB02463C
:10201C003B69D31A41F28832934201D90323B1E0D0
:10202C004B4B1B6A03F00203002BEED014E0FFF7BE
:10203C0067FB38610AE0FFF763FB02463B69D31A82
:10204C0041F28832934201D903239BE0404B1B6A37
:10205C0003F00203002BEED1FB7D012B05D13C4B91
:10206C00DB693B4A23F08053D3617B68DB69002B2F
:10207C0000F08780364B5B6803F00C03082B61D0B3
:10208C007B68DB69022B46D1334B00221A60FFF7C9
:10209C0037FB386108E0FFF733FB02463B69D31A84
:1020AC00022B01D903236DE0294B1B6803F000734D
:1020BC00002BF0D17B681B6AB3F5803F08D1244B11
:1020CC005B6823F400327B689B68214913434B60A7
:1020DC001F4B5B6823F474127B68196A7B685B6A1C
:1020EC000B431B4913434B601B4B01221A60FFF738
:1020FC0007FB386108E0FFF703FB02463B69D31A84
:10210C00022B01D903233DE0114B1B6803F0007334
:10211C00002BF0D035E0104B00221A60FFF7F0FADC
:10212C00386108E0FFF7ECFA02463B69D31A022B40
:10213C0001D9032326E0064B1B6803F00073002B28
:10214C00F0D11EE07B68DB69012B07D1012319E07C
:10215C000010024000700040600042420B4B5B6874
:10216C00FB60FB6803F480327B681B6A9A4206D1E1
:10217C00FB6803F470127B685B6A9A4201D00123FE
:10218C0000E0002318461837BD4680BD0010024001
:10219C0080B584B000AF786039607B68002B01D1CA
:1021AC000123D0E06A4B1B6803F007033A689A429C
:1021BC0010D9674B1B6823F0070265493B68134332
:1021CC000B60634B1B6803F007033A689A4201D01B
:1021DC000123B8E07B681B6803F00203002B20D0BE
:1021EC007B681B6803F00403002B05D0594B5B681C
:1021FC00584A43F4E06353607B681B6803F00803A0
:10220C00002B05D0534B5B68524A43F46053536028
:10221C00504B5B6823F0F0027B689B684D4913437D
:10222C004B607B681B6803F00103002B40D07B687C
:10223C005B68012B07D1474B1B6803F40033002B61
:10224C0015D101237FE07B685B68022B07D1414BE2
:10225C001B6803F00073002B09D1012373E03D4B85
:10226C001B6803F00203002B01D101236BE0394BF7
:10227C005B6823F003027B685B68364913434B6051
:10228C00FFF73EFAF8600AE0FFF73AFA0246FB68FD
:10229C00D31A41F28832934201D9032353E02D4BD8
:1022AC005B6803F00C027B685B689B009A42EBD185
:1022BC00274B1B6803F007033A689A4210D2244B51
:1022CC001B6823F0070222493B6813430B60204B29
:1022DC001B6803F007033A689A4201D0012332E0ED
:1022EC007B681B6803F00403002B08D0194B5B6858
:1022FC0023F4E0627B68DB68164913434B607B6810
:10230C001B6803F00803002B09D0124B5B6823F405
:10231C0060527B681B69DB000E4913434B6000F075
:10232C0021F802460B4B5B681B0903F00F030A49AB
:10233C00CB5C22FA03F3094A1360094B1B6818465D
:10234C00FFF79CF9002318461037BD4680BD00BF2F
:10235C000020024000100240C825000800000020A8
:10236C000400002080B487B000AF0023FB60002382
:10237C00BB6000237B6100237B6000233B611E4B11
:10238C005B68FB60FB6803F00C03042B02D0082B8A
:10239C0003D027E0194B3B6127E0FB689B0C03F053
:1023AC000F03174AD35C7B60FB6803F48033002B6C
:1023BC0010D0114B5B685B0C03F00103114AD35C2A
:1023CC00BB607B680D4A03FB02F2BB68B2FBF3F304
:1023DC007B6104E07B680C4A02FB03F37B617B6945
:1023EC003B6102E0054B3B6100BF3B6918461C3763
:1023FC00BD4680BC704700BF0010024000127A003E
:10240C00D8250008E825000800093D0080B485B0F7
:10241C0000AF78600A4B1B680A4AA2FB03235B0AD5
:10242C007A6802FB03F3FB6000BFFB685A1EFA607C
:10243C00002BF9D100BF00BF1437BD4680BC7047DC
:10244C0000000020D34D6210931E222B10B50C46B9
:10245C0004D900231C460B70204610BD0A2A09D152
:10246C00002807DA2D230B7001214042214400F093
:10247C0005F8F1E70021F9E7FFF7E6BFF0B58BB0FF
:10248C0005460B466E461D4C04F1200C3746206861
:10249C006168083403C764453E46F7D1217920684A
:1024AC003971911E222938604FF0000104D919703E
:1024BC000B4618460BB0F0BD581E8446B5FBF2F720
:1024CC0002FB175628366E4416F8286C0C460CF88E
:1024DC00016F2E46B2423D4601F10101EED90022B8
:1024EC005A541919A51AAA42E3DA10F8015F0E78AA
:1024FC000132067001F80159F4E700BFEA25000823
:10250C0003460244934200D1704703F8011BF9E7DC
:10251C00024610B5147813460132002CFAD1013B57
:10252C0011F8012B03F8012F002AF9D110BD00007E
:10253C0070B500260C4D0D4C641BA410A64209D19D
:10254C0000F01AF800260A4D0A4C641BA410A6428F
:10255C0005D170BD55F8043B98470136EEE755F8A8
:10256C00043B98470136F2E71826000818260008A5
:10257C00182600081C260008F8B500BFF8BC08BCDB
:10258C009E467047F8B500BFF8BC08BC9E46704725
:10259C00000000002A0000002F0000002B000000AB
:1025AC002D000000696E76616C696420696E70752F
:1025BC00742100009C2500089C25000800000000E8
:1025CC0000000000010203040607080902030405C9
:1025DC00060708090A0B0C0D0E0F10100102303102
:1025EC00323334353637383961626364656667680F
:1025FC00696A6B6C6D6E6F707172737475767778C7
:04260C00797A0000D7
:082610003CDBFF7F010000002C
:042618003101000884
:04261C000D010008A4
:0C26200000127A00100000000100000011
:040000050800117965
:00000001FF
